{
  "_format": "hh-sol-artifact-1",
  "contractName": "TURTLEBUDDY",
  "sourceName": "contracts/TURTLEBUDDY.sol",
  "abi": [
    {
      "inputs": [
        {
          "internalType": "string",
          "name": "_tokenName",
          "type": "string"
        },
        {
          "internalType": "string",
          "name": "_tokenSymbol",
          "type": "string"
        },
        {
          "internalType": "uint256",
          "name": "_cost",
          "type": "uint256"
        },
        {
          "internalType": "uint256",
          "name": "_maxSupply",
          "type": "uint256"
        },
        {
          "internalType": "uint256",
          "name": "_maxMintAmountPerTx",
          "type": "uint256"
        },
        {
          "internalType": "string",
          "name": "_hiddenMetadataUri",
          "type": "string"
        }
      ],
      "stateMutability": "nonpayable",
      "type": "constructor"
    },
    {
      "inputs": [],
      "name": "ApprovalCallerNotOwnerNorApproved",
      "type": "error"
    },
    {
      "inputs": [],
      "name": "ApprovalQueryForNonexistentToken",
      "type": "error"
    },
    {
      "inputs": [],
      "name": "ApprovalToCurrentOwner",
      "type": "error"
    },
    {
      "inputs": [],
      "name": "ApproveToCaller",
      "type": "error"
    },
    {
      "inputs": [],
      "name": "BalanceQueryForZeroAddress",
      "type": "error"
    },
    {
      "inputs": [],
      "name": "MintToZeroAddress",
      "type": "error"
    },
    {
      "inputs": [],
      "name": "MintZeroQuantity",
      "type": "error"
    },
    {
      "inputs": [],
      "name": "OwnerQueryForNonexistentToken",
      "type": "error"
    },
    {
      "inputs": [],
      "name": "TransferCallerNotOwnerNorApproved",
      "type": "error"
    },
    {
      "inputs": [],
      "name": "TransferFromIncorrectOwner",
      "type": "error"
    },
    {
      "inputs": [],
      "name": "TransferToNonERC721ReceiverImplementer",
      "type": "error"
    },
    {
      "inputs": [],
      "name": "TransferToZeroAddress",
      "type": "error"
    },
    {
      "anonymous": false,
      "inputs": [
        {
          "indexed": true,
          "internalType": "address",
          "name": "owner",
          "type": "address"
        },
        {
          "indexed": true,
          "internalType": "address",
          "name": "approved",
          "type": "address"
        },
        {
          "indexed": true,
          "internalType": "uint256",
          "name": "tokenId",
          "type": "uint256"
        }
      ],
      "name": "Approval",
      "type": "event"
    },
    {
      "anonymous": false,
      "inputs": [
        {
          "indexed": true,
          "internalType": "address",
          "name": "owner",
          "type": "address"
        },
        {
          "indexed": true,
          "internalType": "address",
          "name": "operator",
          "type": "address"
        },
        {
          "indexed": false,
          "internalType": "bool",
          "name": "approved",
          "type": "bool"
        }
      ],
      "name": "ApprovalForAll",
      "type": "event"
    },
    {
      "anonymous": false,
      "inputs": [
        {
          "indexed": true,
          "internalType": "address",
          "name": "previousOwner",
          "type": "address"
        },
        {
          "indexed": true,
          "internalType": "address",
          "name": "newOwner",
          "type": "address"
        }
      ],
      "name": "OwnershipTransferred",
      "type": "event"
    },
    {
      "anonymous": false,
      "inputs": [
        {
          "indexed": true,
          "internalType": "address",
          "name": "from",
          "type": "address"
        },
        {
          "indexed": true,
          "internalType": "address",
          "name": "to",
          "type": "address"
        },
        {
          "indexed": true,
          "internalType": "uint256",
          "name": "tokenId",
          "type": "uint256"
        }
      ],
      "name": "Transfer",
      "type": "event"
    },
    {
      "inputs": [
        {
          "internalType": "address",
          "name": "to",
          "type": "address"
        },
        {
          "internalType": "uint256",
          "name": "tokenId",
          "type": "uint256"
        }
      ],
      "name": "approve",
      "outputs": [],
      "stateMutability": "nonpayable",
      "type": "function"
    },
    {
      "inputs": [
        {
          "internalType": "address",
          "name": "owner",
          "type": "address"
        }
      ],
      "name": "balanceOf",
      "outputs": [
        {
          "internalType": "uint256",
          "name": "",
          "type": "uint256"
        }
      ],
      "stateMutability": "view",
      "type": "function"
    },
    {
      "inputs": [],
      "name": "cost",
      "outputs": [
        {
          "internalType": "uint256",
          "name": "",
          "type": "uint256"
        }
      ],
      "stateMutability": "view",
      "type": "function"
    },
    {
      "inputs": [],
      "name": "currentMaxSupply",
      "outputs": [
        {
          "internalType": "uint256",
          "name": "",
          "type": "uint256"
        }
      ],
      "stateMutability": "view",
      "type": "function"
    },
    {
      "inputs": [],
      "name": "finalMaxSupply",
      "outputs": [
        {
          "internalType": "uint256",
          "name": "",
          "type": "uint256"
        }
      ],
      "stateMutability": "view",
      "type": "function"
    },
    {
      "inputs": [
        {
          "internalType": "uint256",
          "name": "tokenId",
          "type": "uint256"
        }
      ],
      "name": "getApproved",
      "outputs": [
        {
          "internalType": "address",
          "name": "",
          "type": "address"
        }
      ],
      "stateMutability": "view",
      "type": "function"
    },
    {
      "inputs": [],
      "name": "hasMinted",
      "outputs": [
        {
          "internalType": "bool",
          "name": "",
          "type": "bool"
        }
      ],
      "stateMutability": "view",
      "type": "function"
    },
    {
      "inputs": [],
      "name": "hiddenMetadataUri",
      "outputs": [
        {
          "internalType": "string",
          "name": "",
          "type": "string"
        }
      ],
      "stateMutability": "view",
      "type": "function"
    },
    {
      "inputs": [
        {
          "internalType": "address",
          "name": "owner",
          "type": "address"
        },
        {
          "internalType": "address",
          "name": "operator",
          "type": "address"
        }
      ],
      "name": "isApprovedForAll",
      "outputs": [
        {
          "internalType": "bool",
          "name": "",
          "type": "bool"
        }
      ],
      "stateMutability": "view",
      "type": "function"
    },
    {
      "inputs": [],
      "name": "maxMintAmountPerTx",
      "outputs": [
        {
          "internalType": "uint256",
          "name": "",
          "type": "uint256"
        }
      ],
      "stateMutability": "view",
      "type": "function"
    },
    {
      "inputs": [],
      "name": "merkleRoot",
      "outputs": [
        {
          "internalType": "bytes32",
          "name": "",
          "type": "bytes32"
        }
      ],
      "stateMutability": "view",
      "type": "function"
    },
    {
      "inputs": [
        {
          "internalType": "uint256",
          "name": "_mintAmount",
          "type": "uint256"
        }
      ],
      "name": "mint",
      "outputs": [],
      "stateMutability": "payable",
      "type": "function"
    },
    {
      "inputs": [
        {
          "internalType": "uint256",
          "name": "_mintAmount",
          "type": "uint256"
        },
        {
          "internalType": "address",
          "name": "_receiver",
          "type": "address"
        }
      ],
      "name": "mintForAddress",
      "outputs": [],
      "stateMutability": "nonpayable",
      "type": "function"
    },
    {
      "inputs": [],
      "name": "name",
      "outputs": [
        {
          "internalType": "string",
          "name": "",
          "type": "string"
        }
      ],
      "stateMutability": "view",
      "type": "function"
    },
    {
      "inputs": [],
      "name": "owner",
      "outputs": [
        {
          "internalType": "address",
          "name": "",
          "type": "address"
        }
      ],
      "stateMutability": "view",
      "type": "function"
    },
    {
      "inputs": [
        {
          "internalType": "uint256",
          "name": "tokenId",
          "type": "uint256"
        }
      ],
      "name": "ownerOf",
      "outputs": [
        {
          "internalType": "address",
          "name": "",
          "type": "address"
        }
      ],
      "stateMutability": "view",
      "type": "function"
    },
    {
      "inputs": [],
      "name": "paused",
      "outputs": [
        {
          "internalType": "bool",
          "name": "",
          "type": "bool"
        }
      ],
      "stateMutability": "view",
      "type": "function"
    },
    {
      "inputs": [],
      "name": "renounceOwnership",
      "outputs": [],
      "stateMutability": "nonpayable",
      "type": "function"
    },
    {
      "inputs": [],
      "name": "resetFinalMaxSupply",
      "outputs": [],
      "stateMutability": "nonpayable",
      "type": "function"
    },
    {
      "inputs": [],
      "name": "revealed",
      "outputs": [
        {
          "internalType": "bool",
          "name": "",
          "type": "bool"
        }
      ],
      "stateMutability": "view",
      "type": "function"
    },
    {
      "inputs": [
        {
          "internalType": "address",
          "name": "from",
          "type": "address"
        },
        {
          "internalType": "address",
          "name": "to",
          "type": "address"
        },
        {
          "internalType": "uint256",
          "name": "tokenId",
          "type": "uint256"
        }
      ],
      "name": "safeTransferFrom",
      "outputs": [],
      "stateMutability": "nonpayable",
      "type": "function"
    },
    {
      "inputs": [
        {
          "internalType": "address",
          "name": "from",
          "type": "address"
        },
        {
          "internalType": "address",
          "name": "to",
          "type": "address"
        },
        {
          "internalType": "uint256",
          "name": "tokenId",
          "type": "uint256"
        },
        {
          "internalType": "bytes",
          "name": "_data",
          "type": "bytes"
        }
      ],
      "name": "safeTransferFrom",
      "outputs": [],
      "stateMutability": "nonpayable",
      "type": "function"
    },
    {
      "inputs": [
        {
          "internalType": "address",
          "name": "operator",
          "type": "address"
        },
        {
          "internalType": "bool",
          "name": "approved",
          "type": "bool"
        }
      ],
      "name": "setApprovalForAll",
      "outputs": [],
      "stateMutability": "nonpayable",
      "type": "function"
    },
    {
      "inputs": [
        {
          "internalType": "uint256",
          "name": "_cost",
          "type": "uint256"
        }
      ],
      "name": "setCost",
      "outputs": [],
      "stateMutability": "nonpayable",
      "type": "function"
    },
    {
      "inputs": [
        {
          "internalType": "uint256",
          "name": "_supply",
          "type": "uint256"
        }
      ],
      "name": "setCurrentMaxSupply",
      "outputs": [],
      "stateMutability": "nonpayable",
      "type": "function"
    },
    {
      "inputs": [
        {
          "internalType": "string",
          "name": "_hiddenMetadataUri",
          "type": "string"
        }
      ],
      "name": "setHiddenMetadataUri",
      "outputs": [],
      "stateMutability": "nonpayable",
      "type": "function"
    },
    {
      "inputs": [
        {
          "internalType": "uint256",
          "name": "_maxMintAmountPerTx",
          "type": "uint256"
        }
      ],
      "name": "setMaxMintAmountPerTx",
      "outputs": [],
      "stateMutability": "nonpayable",
      "type": "function"
    },
    {
      "inputs": [
        {
          "internalType": "bytes32",
          "name": "_merkleRoot",
          "type": "bytes32"
        }
      ],
      "name": "setMerkleRoot",
      "outputs": [],
      "stateMutability": "nonpayable",
      "type": "function"
    },
    {
      "inputs": [
        {
          "internalType": "bool",
          "name": "_state",
          "type": "bool"
        }
      ],
      "name": "setPaused",
      "outputs": [],
      "stateMutability": "nonpayable",
      "type": "function"
    },
    {
      "inputs": [
        {
          "internalType": "bool",
          "name": "_state",
          "type": "bool"
        }
      ],
      "name": "setRevealed",
      "outputs": [],
      "stateMutability": "nonpayable",
      "type": "function"
    },
    {
      "inputs": [
        {
          "internalType": "string",
          "name": "_uriPrefix",
          "type": "string"
        }
      ],
      "name": "setUriPrefix",
      "outputs": [],
      "stateMutability": "nonpayable",
      "type": "function"
    },
    {
      "inputs": [
        {
          "internalType": "string",
          "name": "_uriSuffix",
          "type": "string"
        }
      ],
      "name": "setUriSuffix",
      "outputs": [],
      "stateMutability": "nonpayable",
      "type": "function"
    },
    {
      "inputs": [
        {
          "internalType": "bool",
          "name": "_state",
          "type": "bool"
        }
      ],
      "name": "setWhitelistMintEnabled",
      "outputs": [],
      "stateMutability": "nonpayable",
      "type": "function"
    },
    {
      "inputs": [
        {
          "internalType": "bytes4",
          "name": "interfaceId",
          "type": "bytes4"
        }
      ],
      "name": "supportsInterface",
      "outputs": [
        {
          "internalType": "bool",
          "name": "",
          "type": "bool"
        }
      ],
      "stateMutability": "view",
      "type": "function"
    },
    {
      "inputs": [],
      "name": "symbol",
      "outputs": [
        {
          "internalType": "string",
          "name": "",
          "type": "string"
        }
      ],
      "stateMutability": "view",
      "type": "function"
    },
    {
      "inputs": [
        {
          "internalType": "uint256",
          "name": "_tokenId",
          "type": "uint256"
        }
      ],
      "name": "tokenURI",
      "outputs": [
        {
          "internalType": "string",
          "name": "",
          "type": "string"
        }
      ],
      "stateMutability": "view",
      "type": "function"
    },
    {
      "inputs": [],
      "name": "totalSupply",
      "outputs": [
        {
          "internalType": "uint256",
          "name": "",
          "type": "uint256"
        }
      ],
      "stateMutability": "view",
      "type": "function"
    },
    {
      "inputs": [
        {
          "internalType": "address",
          "name": "from",
          "type": "address"
        },
        {
          "internalType": "address",
          "name": "to",
          "type": "address"
        },
        {
          "internalType": "uint256",
          "name": "tokenId",
          "type": "uint256"
        }
      ],
      "name": "transferFrom",
      "outputs": [],
      "stateMutability": "nonpayable",
      "type": "function"
    },
    {
      "inputs": [
        {
          "internalType": "address",
          "name": "newOwner",
          "type": "address"
        }
      ],
      "name": "transferOwnership",
      "outputs": [],
      "stateMutability": "nonpayable",
      "type": "function"
    },
    {
      "inputs": [],
      "name": "uriPrefix",
      "outputs": [
        {
          "internalType": "string",
          "name": "",
          "type": "string"
        }
      ],
      "stateMutability": "view",
      "type": "function"
    },
    {
      "inputs": [],
      "name": "uriSuffix",
      "outputs": [
        {
          "internalType": "string",
          "name": "",
          "type": "string"
        }
      ],
      "stateMutability": "view",
      "type": "function"
    },
    {
      "inputs": [
        {
          "internalType": "address",
          "name": "_owner",
          "type": "address"
        }
      ],
      "name": "walletOfOwner",
      "outputs": [
        {
          "internalType": "uint256[]",
          "name": "",
          "type": "uint256[]"
        }
      ],
      "stateMutability": "view",
      "type": "function"
    },
    {
      "inputs": [
        {
          "internalType": "uint256",
          "name": "_mintAmount",
          "type": "uint256"
        },
        {
          "internalType": "bytes32[]",
          "name": "_merkleProof",
          "type": "bytes32[]"
        }
      ],
      "name": "whitelistMint",
      "outputs": [],
      "stateMutability": "payable",
      "type": "function"
    },
    {
      "inputs": [],
      "name": "whitelistMintEnabled",
      "outputs": [
        {
          "internalType": "bool",
          "name": "",
          "type": "bool"
        }
      ],
      "stateMutability": "view",
      "type": "function"
    },
    {
      "inputs": [],
      "name": "withdraw",
      "outputs": [],
      "stateMutability": "nonpayable",
      "type": "function"
    }
  ],
  "bytecode": "0x60a06040819052600060808190526200001b91600b9162000265565b5060408051808201909152600580825264173539b7b760d91b60209092019182526200004a91600c9162000265565b506115b3600f556012805462ffffff1916620100011790553480156200006f57600080fd5b5060405162002be538038062002be58339810160408190526200009291620003d8565b855186908690620000ab90600290602085019062000265565b508051620000c190600390602084019062000265565b5050600160005550620000d4336200010b565b6001600955620000e4846200015d565b6010839055620000f482620001b1565b620000ff8162000201565b505050505050620004c2565b600880546001600160a01b038381166001600160a01b0319831681179093556040519116919082907f8be0079c531659141344cd1fd0a4f28419497f9722a3daafe3b4186f6b6457e090600090a35050565b6008546001600160a01b03163314620001ac5760405162461bcd60e51b8152602060048201819052602482015260008051602062002bc583398151915260448201526064015b60405180910390fd5b600e55565b6008546001600160a01b03163314620001fc5760405162461bcd60e51b8152602060048201819052602482015260008051602062002bc58339815191526044820152606401620001a3565b601155565b6008546001600160a01b031633146200024c5760405162461bcd60e51b8152602060048201819052602482015260008051602062002bc58339815191526044820152606401620001a3565b80516200026190600b90602084019062000265565b5050565b828054620002739062000485565b90600052602060002090601f016020900481019282620002975760008555620002e2565b82601f10620002b257805160ff1916838001178555620002e2565b82800160010185558215620002e2579182015b82811115620002e2578251825591602001919060010190620002c5565b50620002f0929150620002f4565b5090565b5b80821115620002f05760008155600101620002f5565b634e487b7160e01b600052604160045260246000fd5b600082601f8301126200033357600080fd5b81516001600160401b03808211156200035057620003506200030b565b604051601f8301601f19908116603f011681019082821181831017156200037b576200037b6200030b565b816040528381526020925086838588010111156200039857600080fd5b600091505b83821015620003bc57858201830151818301840152908201906200039d565b83821115620003ce5760008385830101525b9695505050505050565b60008060008060008060c08789031215620003f257600080fd5b86516001600160401b03808211156200040a57600080fd5b620004188a838b0162000321565b975060208901519150808211156200042f57600080fd5b6200043d8a838b0162000321565b965060408901519550606089015194506080890151935060a08901519150808211156200046957600080fd5b506200047889828a0162000321565b9150509295509295509295565b600181811c908216806200049a57607f821691505b60208210811415620004bc57634e487b7160e01b600052602260045260246000fd5b50919050565b6126f380620004d26000396000f3fe6080604052600436106102725760003560e01c806362b99ad41161014f578063a0712d68116100c1578063c87b56dd1161007a578063c87b56dd146106f8578063d2cab05614610718578063e0a808531461072b578063e985e9c51461074b578063efbd73f414610794578063f2fde38b146107b457600080fd5b8063a0712d6814610650578063a22cb46514610663578063a45ba8e714610683578063b071401b14610698578063b767a098146106b8578063b88d4fde146106d857600080fd5b8063730220111161011357806373022011146105a75780637cb64759146105c75780637ec4a659146105e75780638da5cb5b1461060757806394354fd01461062557806395d89b411461063b57600080fd5b806362b99ad41461051e5780636352211e146105335780636caede3d1461055357806370a0823114610572578063715018a61461059257600080fd5b80632eb4a7ab116101e85780634ad66811116101ac5780634ad66811146104845780634fdd43cb1461049a57806351830227146104ba5780635503a0e8146104da578063569b75f8146104ef5780635c975abb1461050457600080fd5b80632eb4a7ab146103ec5780633ccfd60b1461040257806342842e0e14610417578063438b63001461043757806344a0d68a1461046457600080fd5b806313faede61161023a57806313faede61461034c57806316ba10e01461036257806316c38b3c1461038257806318160ddd146103a257806322ef6975146103b757806323b872dd146103cc57600080fd5b806301ffc9a71461027757806306fdde03146102ac578063081812fc146102ce578063095ea7b314610306578063104aeef814610328575b600080fd5b34801561028357600080fd5b50610297610292366004612035565b6107d4565b60405190151581526020015b60405180910390f35b3480156102b857600080fd5b506102c1610826565b6040516102a391906120aa565b3480156102da57600080fd5b506102ee6102e93660046120bd565b6108b8565b6040516001600160a01b0390911681526020016102a3565b34801561031257600080fd5b506103266103213660046120f2565b6108fc565b005b34801561033457600080fd5b5061033e60105481565b6040519081526020016102a3565b34801561035857600080fd5b5061033e600e5481565b34801561036e57600080fd5b5061032661037d3660046121a7565b61098a565b34801561038e57600080fd5b5061032661039d3660046121ff565b6109d4565b3480156103ae57600080fd5b5061033e610a11565b3480156103c357600080fd5b50610297610a1f565b3480156103d857600080fd5b506103266103e736600461221a565b610a3c565b3480156103f857600080fd5b5061033e600a5481565b34801561040e57600080fd5b50610326610a47565b34801561042357600080fd5b5061032661043236600461221a565b610b42565b34801561044357600080fd5b50610457610452366004612256565b610b5d565b6040516102a39190612271565b34801561047057600080fd5b5061032661047f3660046120bd565b610ca4565b34801561049057600080fd5b5061033e600f5481565b3480156104a657600080fd5b506103266104b53660046121a7565b610cd3565b3480156104c657600080fd5b506012546102979062010000900460ff1681565b3480156104e657600080fd5b506102c1610d10565b3480156104fb57600080fd5b50610326610d9e565b34801561051057600080fd5b506012546102979060ff1681565b34801561052a57600080fd5b506102c1610dd0565b34801561053f57600080fd5b506102ee61054e3660046120bd565b610ddd565b34801561055f57600080fd5b5060125461029790610100900460ff1681565b34801561057e57600080fd5b5061033e61058d366004612256565b610def565b34801561059e57600080fd5b50610326610e3d565b3480156105b357600080fd5b506103266105c23660046120bd565b610e73565b3480156105d357600080fd5b506103266105e23660046120bd565b610ec4565b3480156105f357600080fd5b506103266106023660046121a7565b610ef3565b34801561061357600080fd5b506008546001600160a01b03166102ee565b34801561063157600080fd5b5061033e60115481565b34801561064757600080fd5b506102c1610f30565b61032661065e3660046120bd565b610f3f565b34801561066f57600080fd5b5061032661067e3660046122b5565b6110a4565b34801561068f57600080fd5b506102c161113a565b3480156106a457600080fd5b506103266106b33660046120bd565b611147565b3480156106c457600080fd5b506103266106d33660046121ff565b611176565b3480156106e457600080fd5b506103266106f33660046122e8565b6111ba565b34801561070457600080fd5b506102c16107133660046120bd565b61120b565b610326610726366004612363565b61137b565b34801561073757600080fd5b506103266107463660046121ff565b611599565b34801561075757600080fd5b506102976107663660046123e1565b6001600160a01b03918216600090815260076020908152604080832093909416825291909152205460ff1690565b3480156107a057600080fd5b506103266107af36600461240b565b6115df565b3480156107c057600080fd5b506103266107cf366004612256565b611647565b60006001600160e01b031982166380ac58cd60e01b148061080557506001600160e01b03198216635b5e139f60e01b145b8061082057506301ffc9a760e01b6001600160e01b03198316145b92915050565b6060600280546108359061242e565b80601f01602080910402602001604051908101604052809291908181526020018280546108619061242e565b80156108ae5780601f10610883576101008083540402835291602001916108ae565b820191906000526020600020905b81548152906001019060200180831161089157829003601f168201915b5050505050905090565b60006108c3826116e2565b6108e0576040516333d1c03960e21b815260040160405180910390fd5b506000908152600660205260409020546001600160a01b031690565b600061090782610ddd565b9050806001600160a01b0316836001600160a01b0316141561093c5760405163250fdee360e21b815260040160405180910390fd5b336001600160a01b0382161480159061095c575061095a8133610766565b155b1561097a576040516367d9dca160e11b815260040160405180910390fd5b61098583838361171b565b505050565b6008546001600160a01b031633146109bd5760405162461bcd60e51b81526004016109b490612469565b60405180910390fd5b80516109d090600c906020840190611f86565b5050565b6008546001600160a01b031633146109fe5760405162461bcd60e51b81526004016109b490612469565b6012805460ff1916911515919091179055565b600154600054036000190190565b600080610a2b33611777565b11610a365750600090565b50600190565b6109858383836117a2565b6008546001600160a01b03163314610a715760405162461bcd60e51b81526004016109b490612469565b60026009541415610ac45760405162461bcd60e51b815260206004820152601f60248201527f5265656e7472616e637947756172643a207265656e7472616e742063616c6c0060448201526064016109b4565b60026009556000610add6008546001600160a01b031690565b6001600160a01b03164760405160006040518083038185875af1925050503d8060008114610b27576040519150601f19603f3d011682016040523d82523d6000602084013e610b2c565b606091505b5050905080610b3a57600080fd5b506001600955565b610985838383604051806020016040528060008152506111ba565b60606000610b6a83610def565b90506000816001600160401b03811115610b8657610b8661211c565b604051908082528060200260200182016040528015610baf578160200160208202803683370190505b50905060016000805b8482108015610bc957506010548311155b15610c9957600083815260046020908152604091829020825160608101845290546001600160a01b0381168252600160a01b81046001600160401b031692820192909252600160e01b90910460ff161580159282018390529091610c36575080516001600160a01b031615155b15610c4057805191505b876001600160a01b0316826001600160a01b03161415610c865783858481518110610c6d57610c6d61249e565b602090810291909101015282610c82816124ca565b9350505b83610c90816124ca565b94505050610bb8565b509195945050505050565b6008546001600160a01b03163314610cce5760405162461bcd60e51b81526004016109b490612469565b600e55565b6008546001600160a01b03163314610cfd5760405162461bcd60e51b81526004016109b490612469565b80516109d090600d906020840190611f86565b600c8054610d1d9061242e565b80601f0160208091040260200160405190810160405280929190818152602001828054610d499061242e565b8015610d965780601f10610d6b57610100808354040283529160200191610d96565b820191906000526020600020905b815481529060010190602001808311610d7957829003601f168201915b505050505081565b6008546001600160a01b03163314610dc85760405162461bcd60e51b81526004016109b490612469565b601054600f55565b600b8054610d1d9061242e565b6000610de88261198d565b5192915050565b60006001600160a01b038216610e18576040516323d3ad8160e21b815260040160405180910390fd5b506001600160a01b03166000908152600560205260409020546001600160401b031690565b6008546001600160a01b03163314610e675760405162461bcd60e51b81526004016109b490612469565b610e716000611ab4565b565b6008546001600160a01b03163314610e9d5760405162461bcd60e51b81526004016109b490612469565b600f548111158015610eb65750610eb2610a11565b8110155b610ebf57600080fd5b601055565b6008546001600160a01b03163314610eee5760405162461bcd60e51b81526004016109b490612469565b600a55565b6008546001600160a01b03163314610f1d5760405162461bcd60e51b81526004016109b490612469565b80516109d090600b906020840190611f86565b6060600380546108359061242e565b60125460ff1615610f925760405162461bcd60e51b815260206004820152601760248201527f54686520636f6e7472616374206973207061757365642100000000000000000060448201526064016109b4565b600081118015610fa457506011548111155b610fe75760405162461bcd60e51b8152602060048201526014602482015273496e76616c6964206d696e7420616d6f756e742160601b60448201526064016109b4565b60105481610ff3610a11565b610ffd91906124e5565b111561101b5760405162461bcd60e51b81526004016109b4906124fd565b60008061102733611777565b11611033576001611036565b60005b60ff169050611045818361252b565b600e546110529190612542565b34101561109a5760405162461bcd60e51b81526020600482015260166024820152755041594d454e543a20696e76616c69642076616c756560501b60448201526064016109b4565b6109d03383611b06565b6001600160a01b0382163314156110ce5760405163b06307db60e01b815260040160405180910390fd5b3360008181526007602090815260408083206001600160a01b03871680855290835292819020805460ff191686151590811790915590519081529192917f17307eab39ab6107e8899845ad3d59bd9653f200f220920489ca2b5937696c31910160405180910390a35050565b600d8054610d1d9061242e565b6008546001600160a01b031633146111715760405162461bcd60e51b81526004016109b490612469565b601155565b6008546001600160a01b031633146111a05760405162461bcd60e51b81526004016109b490612469565b601280549115156101000261ff0019909216919091179055565b6111c58484846117a2565b6001600160a01b0383163b151580156111e757506111e584848484611b20565b155b15611205576040516368d2bf6b60e11b815260040160405180910390fd5b50505050565b6060611216826116e2565b61127a5760405162461bcd60e51b815260206004820152602f60248201527f4552433732314d657461646174613a2055524920717565727920666f72206e6f60448201526e3732bc34b9ba32b73a103a37b5b2b760891b60648201526084016109b4565b60125462010000900460ff1661131c57600d80546112979061242e565b80601f01602080910402602001604051908101604052809291908181526020018280546112c39061242e565b80156113105780601f106112e557610100808354040283529160200191611310565b820191906000526020600020905b8154815290600101906020018083116112f357829003601f168201915b50505050509050919050565b6000611326611c18565b905060008151116113465760405180602001604052806000815250611374565b8061135084611c27565b600c60405160200161136493929190612561565b6040516020818303038152906040525b9392505050565b601254610100900460ff166113c95760405162461bcd60e51b815260206004820152601460248201527357686974656c69737420697320636c6f7365642160601b60448201526064016109b4565b6040516bffffffffffffffffffffffff193360601b16602082015260009060340160405160208183030381529060405280519060200120905061144383838080602002602001604051908101604052809392919081815260200183836020028082843760009201919091525050600a549150849050611d24565b6114805760405162461bcd60e51b815260206004820152600e60248201526d496e76616c69642070726f6f662160901b60448201526064016109b4565b60008411801561149257506011548411155b6114d55760405162461bcd60e51b8152602060048201526014602482015273496e76616c6964206d696e7420616d6f756e742160601b60448201526064016109b4565b601054846114e1610a11565b6114eb91906124e5565b11156115095760405162461bcd60e51b81526004016109b4906124fd565b60008061151533611777565b11611521576001611524565b60005b60ff169050611533818661252b565b600e546115409190612542565b3410156115885760405162461bcd60e51b81526020600482015260166024820152755041594d454e543a20696e76616c69642076616c756560501b60448201526064016109b4565b6115923386611b06565b5050505050565b6008546001600160a01b031633146115c35760405162461bcd60e51b81526004016109b490612469565b60128054911515620100000262ff000019909216919091179055565b6008546001600160a01b031633146116095760405162461bcd60e51b81526004016109b490612469565b60105482611615610a11565b61161f91906124e5565b111561163d5760405162461bcd60e51b81526004016109b4906124fd565b6109d08183611b06565b6008546001600160a01b031633146116715760405162461bcd60e51b81526004016109b490612469565b6001600160a01b0381166116d65760405162461bcd60e51b815260206004820152602660248201527f4f776e61626c653a206e6577206f776e657220697320746865207a65726f206160448201526564647265737360d01b60648201526084016109b4565b6116df81611ab4565b50565b6000816001111580156116f6575060005482105b8015610820575050600090815260046020526040902054600160e01b900460ff161590565b60008281526006602052604080822080546001600160a01b0319166001600160a01b0387811691821790925591518593918516917f8c5be1e5ebec7d5bd14f71427d1e84f3dd0314c0f7b2291e5b200ac8c7c3b92591a4505050565b6001600160a01b0316600090815260056020526040902054600160401b90046001600160401b031690565b60006117ad8261198d565b9050836001600160a01b031681600001516001600160a01b0316146117e45760405162a1148160e81b815260040160405180910390fd5b6000336001600160a01b038616148061180257506118028533610766565b8061181d575033611812846108b8565b6001600160a01b0316145b90508061183d57604051632ce44b5f60e11b815260040160405180910390fd5b6001600160a01b03841661186457604051633a954ecd60e21b815260040160405180910390fd5b6118706000848761171b565b6001600160a01b038581166000908152600560209081526040808320805467ffffffffffffffff198082166001600160401b0392831660001901831617909255898616808652838620805493841693831660019081018416949094179055898652600490945282852080546001600160e01b031916909417600160a01b4290921691909102178355870180845292208054919390911661194457600054821461194457805460208601516001600160401b0316600160a01b026001600160e01b03199091166001600160a01b038a16171781555b50505082846001600160a01b0316866001600160a01b03167fddf252ad1be2c89b69c2b068fc378daa952ba7f163c4a11628f55a4df523b3ef60405160405180910390a4611592565b604080516060810182526000808252602082018190529181019190915281806001111580156119bd575060005481105b15611a9b57600081815260046020908152604091829020825160608101845290546001600160a01b0381168252600160a01b81046001600160401b031692820192909252600160e01b90910460ff16151591810182905290611a995780516001600160a01b031615611a30579392505050565b5060001901600081815260046020908152604091829020825160608101845290546001600160a01b038116808352600160a01b82046001600160401b031693830193909352600160e01b900460ff1615159281019290925215611a94579392505050565b611a30565b505b604051636f96cda160e11b815260040160405180910390fd5b600880546001600160a01b038381166001600160a01b0319831681179093556040519116919082907f8be0079c531659141344cd1fd0a4f28419497f9722a3daafe3b4186f6b6457e090600090a35050565b6109d0828260405180602001604052806000815250611d3a565b604051630a85bd0160e11b81526000906001600160a01b0385169063150b7a0290611b55903390899088908890600401612625565b602060405180830381600087803b158015611b6f57600080fd5b505af1925050508015611b9f575060408051601f3d908101601f19168201909252611b9c91810190612662565b60015b611bfa573d808015611bcd576040519150601f19603f3d011682016040523d82523d6000602084013e611bd2565b606091505b508051611bf2576040516368d2bf6b60e11b815260040160405180910390fd5b805181602001fd5b6001600160e01b031916630a85bd0160e11b1490505b949350505050565b6060600b80546108359061242e565b606081611c4b5750506040805180820190915260018152600360fc1b602082015290565b8160005b8115611c755780611c5f816124ca565b9150611c6e9050600a83612695565b9150611c4f565b6000816001600160401b03811115611c8f57611c8f61211c565b6040519080825280601f01601f191660200182016040528015611cb9576020820181803683370190505b5090505b8415611c1057611cce60018361252b565b9150611cdb600a866126a9565b611ce69060306124e5565b60f81b818381518110611cfb57611cfb61249e565b60200101906001600160f81b031916908160001a905350611d1d600a86612695565b9450611cbd565b600082611d318584611d47565b14949350505050565b6109858383836001611dbb565b600081815b8451811015611db3576000858281518110611d6957611d6961249e565b60200260200101519050808311611d8f5760008381526020829052604090209250611da0565b600081815260208490526040902092505b5080611dab816124ca565b915050611d4c565b509392505050565b6000546001600160a01b038516611de457604051622e076360e81b815260040160405180910390fd5b83611e025760405163b562e8dd60e01b815260040160405180910390fd5b6001600160a01b038516600081815260056020908152604080832080546fffffffffffffffffffffffffffffffff1981166001600160401b038083168c018116918217600160401b67ffffffffffffffff1990941690921783900481168c01811690920217909155858452600490925290912080546001600160e01b031916909217600160a01b429092169190910217905580808501838015611eae57506001600160a01b0387163b15155b15611f37575b60405182906001600160a01b038916906000907fddf252ad1be2c89b69c2b068fc378daa952ba7f163c4a11628f55a4df523b3ef908290a4611eff6000888480600101955088611b20565b611f1c576040516368d2bf6b60e11b815260040160405180910390fd5b80821415611eb4578260005414611f3257600080fd5b611f7d565b5b6040516001830192906001600160a01b038916906000907fddf252ad1be2c89b69c2b068fc378daa952ba7f163c4a11628f55a4df523b3ef908290a480821415611f38575b50600055611592565b828054611f929061242e565b90600052602060002090601f016020900481019282611fb45760008555611ffa565b82601f10611fcd57805160ff1916838001178555611ffa565b82800160010185558215611ffa579182015b82811115611ffa578251825591602001919060010190611fdf565b5061200692915061200a565b5090565b5b80821115612006576000815560010161200b565b6001600160e01b0319811681146116df57600080fd5b60006020828403121561204757600080fd5b81356113748161201f565b60005b8381101561206d578181015183820152602001612055565b838111156112055750506000910152565b60008151808452612096816020860160208601612052565b601f01601f19169290920160200192915050565b602081526000611374602083018461207e565b6000602082840312156120cf57600080fd5b5035919050565b80356001600160a01b03811681146120ed57600080fd5b919050565b6000806040838503121561210557600080fd5b61210e836120d6565b946020939093013593505050565b634e487b7160e01b600052604160045260246000fd5b60006001600160401b038084111561214c5761214c61211c565b604051601f8501601f19908116603f011681019082821181831017156121745761217461211c565b8160405280935085815286868601111561218d57600080fd5b858560208301376000602087830101525050509392505050565b6000602082840312156121b957600080fd5b81356001600160401b038111156121cf57600080fd5b8201601f810184136121e057600080fd5b611c1084823560208401612132565b803580151581146120ed57600080fd5b60006020828403121561221157600080fd5b611374826121ef565b60008060006060848603121561222f57600080fd5b612238846120d6565b9250612246602085016120d6565b9150604084013590509250925092565b60006020828403121561226857600080fd5b611374826120d6565b6020808252825182820181905260009190848201906040850190845b818110156122a95783518352928401929184019160010161228d565b50909695505050505050565b600080604083850312156122c857600080fd5b6122d1836120d6565b91506122df602084016121ef565b90509250929050565b600080600080608085870312156122fe57600080fd5b612307856120d6565b9350612315602086016120d6565b92506040850135915060608501356001600160401b0381111561233757600080fd5b8501601f8101871361234857600080fd5b61235787823560208401612132565b91505092959194509250565b60008060006040848603121561237857600080fd5b8335925060208401356001600160401b038082111561239657600080fd5b818601915086601f8301126123aa57600080fd5b8135818111156123b957600080fd5b8760208260051b85010111156123ce57600080fd5b6020830194508093505050509250925092565b600080604083850312156123f457600080fd5b6123fd836120d6565b91506122df602084016120d6565b6000806040838503121561241e57600080fd5b823591506122df602084016120d6565b600181811c9082168061244257607f821691505b6020821081141561246357634e487b7160e01b600052602260045260246000fd5b50919050565b6020808252818101527f4f776e61626c653a2063616c6c6572206973206e6f7420746865206f776e6572604082015260600190565b634e487b7160e01b600052603260045260246000fd5b634e487b7160e01b600052601160045260246000fd5b60006000198214156124de576124de6124b4565b5060010190565b600082198211156124f8576124f86124b4565b500190565b6020808252601490820152734d617820737570706c792065786365656465642160601b604082015260600190565b60008282101561253d5761253d6124b4565b500390565b600081600019048311821515161561255c5761255c6124b4565b500290565b6000845160206125748285838a01612052565b8551918401916125878184848a01612052565b8554920191600090600181811c90808316806125a457607f831692505b8583108114156125c257634e487b7160e01b85526022600452602485fd5b8080156125d657600181146125e757612614565b60ff19851688528388019550612614565b60008b81526020902060005b8581101561260c5781548a8201529084019088016125f3565b505083880195505b50939b9a5050505050505050505050565b6001600160a01b03858116825284166020820152604081018390526080606082018190526000906126589083018461207e565b9695505050505050565b60006020828403121561267457600080fd5b81516113748161201f565b634e487b7160e01b600052601260045260246000fd5b6000826126a4576126a461267f565b500490565b6000826126b8576126b861267f565b50069056fea2646970667358221220de56d53a8dd0f8fa0b98292c0b31662b97bc68f09809222324ce37eca4e8be0964736f6c634300080900334f776e61626c653a2063616c6c6572206973206e6f7420746865206f776e6572",
  "linkReferences": {},
  "deployedLinkReferences": {}
}